{
  "_format": "hh-sol-artifact-1",
  "contractName": "Vault",
  "sourceName": "contracts/Vault.sol",
  "abi": [
    {
      "inputs": [
        {
          "internalType": "contract PriceConsumerV3",
          "name": "_priceConsumerV3",
          "type": "address"
        },
        {
          "internalType": "contract StableCoinToken",
          "name": "_stableCoinToken",
          "type": "address"
        }
      ],
      "stateMutability": "nonpayable",
      "type": "constructor"
    },
    {
      "anonymous": false,
      "inputs": [
        {
          "indexed": true,
          "internalType": "address",
          "name": "previousOwner",
          "type": "address"
        },
        {
          "indexed": true,
          "internalType": "address",
          "name": "newOwner",
          "type": "address"
        }
      ],
      "name": "OwnershipTransferred",
      "type": "event"
    },
    {
      "anonymous": false,
      "inputs": [
        {
          "indexed": false,
          "internalType": "uint256",
          "name": "depositAmount",
          "type": "uint256"
        },
        {
          "indexed": false,
          "internalType": "uint256",
          "name": "amountToMint",
          "type": "uint256"
        }
      ],
      "name": "depositEvent",
      "type": "event"
    },
    {
      "anonymous": false,
      "inputs": [
        {
          "indexed": false,
          "internalType": "uint256",
          "name": "amountToWithdraw",
          "type": "uint256"
        },
        {
          "indexed": false,
          "internalType": "uint256",
          "name": "repaymentAmount",
          "type": "uint256"
        }
      ],
      "name": "withdrawEvent",
      "type": "event"
    },
    {
      "inputs": [
        {
          "internalType": "uint256",
          "name": "_depositAmount",
          "type": "uint256"
        }
      ],
      "name": "deposit",
      "outputs": [],
      "stateMutability": "payable",
      "type": "function"
    },
    {
      "inputs": [
        {
          "internalType": "uint256",
          "name": "_repaymentAmount",
          "type": "uint256"
        }
      ],
      "name": "estimateCollateralAmount",
      "outputs": [
        {
          "internalType": "uint256",
          "name": "collateralAmount",
          "type": "uint256"
        }
      ],
      "stateMutability": "view",
      "type": "function"
    },
    {
      "inputs": [
        {
          "internalType": "uint256",
          "name": "_depositAmount",
          "type": "uint256"
        }
      ],
      "name": "estimateTokenAmount",
      "outputs": [
        {
          "internalType": "uint256",
          "name": "tokenAmount",
          "type": "uint256"
        }
      ],
      "stateMutability": "view",
      "type": "function"
    },
    {
      "inputs": [],
      "name": "getEthUSDPrice",
      "outputs": [
        {
          "internalType": "uint256",
          "name": "",
          "type": "uint256"
        }
      ],
      "stateMutability": "view",
      "type": "function"
    },
    {
      "inputs": [
        {
          "internalType": "address",
          "name": "userAddress",
          "type": "address"
        }
      ],
      "name": "getVault",
      "outputs": [
        {
          "components": [
            {
              "internalType": "uint256",
              "name": "debtAmount",
              "type": "uint256"
            },
            {
              "internalType": "uint256",
              "name": "collateralAmount",
              "type": "uint256"
            }
          ],
          "internalType": "struct Vault.VaultStruct",
          "name": "",
          "type": "tuple"
        }
      ],
      "stateMutability": "view",
      "type": "function"
    },
    {
      "inputs": [],
      "name": "owner",
      "outputs": [
        {
          "internalType": "address",
          "name": "",
          "type": "address"
        }
      ],
      "stateMutability": "view",
      "type": "function"
    },
    {
      "inputs": [],
      "name": "renounceOwnership",
      "outputs": [],
      "stateMutability": "nonpayable",
      "type": "function"
    },
    {
      "inputs": [],
      "name": "s_token",
      "outputs": [
        {
          "internalType": "contract StableCoinToken",
          "name": "",
          "type": "address"
        }
      ],
      "stateMutability": "view",
      "type": "function"
    },
    {
      "inputs": [
        {
          "internalType": "address",
          "name": "newOwner",
          "type": "address"
        }
      ],
      "name": "transferOwnership",
      "outputs": [],
      "stateMutability": "nonpayable",
      "type": "function"
    },
    {
      "inputs": [
        {
          "internalType": "address",
          "name": "",
          "type": "address"
        }
      ],
      "name": "vaults",
      "outputs": [
        {
          "internalType": "uint256",
          "name": "debtAmount",
          "type": "uint256"
        },
        {
          "internalType": "uint256",
          "name": "collateralAmount",
          "type": "uint256"
        }
      ],
      "stateMutability": "view",
      "type": "function"
    },
    {
      "inputs": [
        {
          "internalType": "uint256",
          "name": "_repaymentAmount",
          "type": "uint256"
        }
      ],
      "name": "withdraw",
      "outputs": [],
      "stateMutability": "payable",
      "type": "function"
    }
  ],
  "bytecode": "0x60806040523480156200001157600080fd5b506040516200159f3803806200159f8339818101604052810190620000379190620001db565b620000576200004b620000e160201b60201c565b620000e960201b60201c565b80600160006101000a81548173ffffffffffffffffffffffffffffffffffffffff021916908373ffffffffffffffffffffffffffffffffffffffff16021790555081600260006101000a81548173ffffffffffffffffffffffffffffffffffffffff021916908373ffffffffffffffffffffffffffffffffffffffff1602179055505050620002ac565b600033905090565b60008060009054906101000a900473ffffffffffffffffffffffffffffffffffffffff169050816000806101000a81548173ffffffffffffffffffffffffffffffffffffffff021916908373ffffffffffffffffffffffffffffffffffffffff1602179055508173ffffffffffffffffffffffffffffffffffffffff168173ffffffffffffffffffffffffffffffffffffffff167f8be0079c531659141344cd1fd0a4f28419497f9722a3daafe3b4186f6b6457e060405160405180910390a35050565b600081519050620001be8162000278565b92915050565b600081519050620001d58162000292565b92915050565b60008060408385031215620001ef57600080fd5b6000620001ff85828601620001ad565b92505060206200021285828601620001c4565b9150509250929050565b6000620002298262000258565b9050919050565b60006200023d826200021c565b9050919050565b600062000251826200021c565b9050919050565b600073ffffffffffffffffffffffffffffffffffffffff82169050919050565b620002838162000230565b81146200028f57600080fd5b50565b6200029d8162000244565b8114620002a957600080fd5b50565b6112e380620002bc6000396000f3fe60806040526004361061009c5760003560e01c8063715018a611610064578063715018a61461019f5780638da5cb5b146101b6578063a622ee7c146101e1578063b6b55f251461021f578063d84549d71461023b578063f2fde38b146102665761009c565b80630eb9af38146100a15780631b05ab79146100de5780632e1a7d4d1461011b57806356bfdaf51461013757806365156b3114610174575b600080fd5b3480156100ad57600080fd5b506100c860048036038101906100c39190610c1f565b61028f565b6040516100d59190610f05565b60405180910390f35b3480156100ea57600080fd5b5061010560048036038101906101009190610c9a565b6102fc565b6040516101129190610f20565b60405180910390f35b61013560048036038101906101309190610c9a565b610318565b005b34801561014357600080fd5b5061015e60048036038101906101599190610c9a565b610687565b60405161016b9190610f20565b60405180910390f35b34801561018057600080fd5b506101896106a3565b6040516101969190610e4a565b60405180910390f35b3480156101ab57600080fd5b506101b46106c9565b005b3480156101c257600080fd5b506101cb6106dd565b6040516101d89190610e06565b60405180910390f35b3480156101ed57600080fd5b5061020860048036038101906102039190610c1f565b610706565b604051610216929190610f3b565b60405180910390f35b61023960048036038101906102349190610c9a565b61072a565b005b34801561024757600080fd5b50610250610922565b60405161025d9190610f20565b60405180910390f35b34801561027257600080fd5b5061028d60048036038101906102889190610c1f565b6109ce565b005b610297610b9c565b600360008373ffffffffffffffffffffffffffffffffffffffff1673ffffffffffffffffffffffffffffffffffffffff168152602001908152602001600020604051806040016040529081600082015481526020016001820154815250509050919050565b6000610306610922565b826103119190610ffc565b9050919050565b600360003373ffffffffffffffffffffffffffffffffffffffff1673ffffffffffffffffffffffffffffffffffffffff1681526020019081526020016000206000015481111561039d576040517f08c379a000000000000000000000000000000000000000000000000000000000815260040161039490610e65565b60405180910390fd5b80600160009054906101000a900473ffffffffffffffffffffffffffffffffffffffff1673ffffffffffffffffffffffffffffffffffffffff166370a08231336040518263ffffffff1660e01b81526004016103f99190610e06565b60206040518083038186803b15801561041157600080fd5b505afa158015610425573d6000803e3d6000fd5b505050506040513d601f19601f820116820180604052508101906104499190610cc3565b101561048a576040517f08c379a000000000000000000000000000000000000000000000000000000000815260040161048190610ea5565b60405180910390fd5b6000610494610922565b8261049f9190610fcb565b9050600160009054906101000a900473ffffffffffffffffffffffffffffffffffffffff1673ffffffffffffffffffffffffffffffffffffffff16639dc29fac33846040518363ffffffff1660e01b81526004016104fe929190610e21565b602060405180830381600087803b15801561051857600080fd5b505af115801561052c573d6000803e3d6000fd5b505050506040513d601f19601f820116820180604052508101906105509190610c48565b5080600360003373ffffffffffffffffffffffffffffffffffffffff1673ffffffffffffffffffffffffffffffffffffffff16815260200190815260200160002060010160008282546105a39190611056565b9250508190555081600360003373ffffffffffffffffffffffffffffffffffffffff1673ffffffffffffffffffffffffffffffffffffffff16815260200190815260200160002060000160008282546105fc9190611056565b925050819055503373ffffffffffffffffffffffffffffffffffffffff166108fc829081150290604051600060405180830381858888f19350505050158015610649573d6000803e3d6000fd5b507f891f5fcb684137d1c72ec3ae0ee3fc08e47d013d6f44645f2abd3486ff16cfb9818360405161067b929190610f3b565b60405180910390a15050565b6000610691610922565b8261069c9190610fcb565b9050919050565b600160009054906101000a900473ffffffffffffffffffffffffffffffffffffffff1681565b6106d1610a52565b6106db6000610ad0565b565b60008060009054906101000a900473ffffffffffffffffffffffffffffffffffffffff16905090565b60036020528060005260406000206000915090508060000154908060010154905082565b34811461076c576040517f08c379a000000000000000000000000000000000000000000000000000000000815260040161076390610ec5565b60405180910390fd5b6000610776610922565b826107819190610ffc565b9050600160009054906101000a900473ffffffffffffffffffffffffffffffffffffffff1673ffffffffffffffffffffffffffffffffffffffff166340c10f1933836040518363ffffffff1660e01b81526004016107e0929190610e21565b602060405180830381600087803b1580156107fa57600080fd5b505af115801561080e573d6000803e3d6000fd5b505050506040513d601f19601f820116820180604052508101906108329190610c48565b5081600360003373ffffffffffffffffffffffffffffffffffffffff1673ffffffffffffffffffffffffffffffffffffffff16815260200190815260200160002060010160008282546108859190610f75565b9250508190555080600360003373ffffffffffffffffffffffffffffffffffffffff1673ffffffffffffffffffffffffffffffffffffffff16815260200190815260200160002060000160008282546108de9190610f75565b925050819055507f9acf500f2a8081ffa0897a62fda087ee540f662d8cda5c32fe550fbf38ef51a28282604051610916929190610f3b565b60405180910390a15050565b600080600260009054906101000a900473ffffffffffffffffffffffffffffffffffffffff1673ffffffffffffffffffffffffffffffffffffffff16638e15f4736040518163ffffffff1660e01b815260040160206040518083038186803b15801561098d57600080fd5b505afa1580156109a1573d6000803e3d6000fd5b505050506040513d601f19601f820116820180604052508101906109c59190610c71565b90508091505090565b6109d6610a52565b600073ffffffffffffffffffffffffffffffffffffffff168173ffffffffffffffffffffffffffffffffffffffff161415610a46576040517f08c379a0000000000000000000000000000000000000000000000000000000008152600401610a3d90610e85565b60405180910390fd5b610a4f81610ad0565b50565b610a5a610b94565b73ffffffffffffffffffffffffffffffffffffffff16610a786106dd565b73ffffffffffffffffffffffffffffffffffffffff1614610ace576040517f08c379a0000000000000000000000000000000000000000000000000000000008152600401610ac590610ee5565b60405180910390fd5b565b60008060009054906101000a900473ffffffffffffffffffffffffffffffffffffffff169050816000806101000a81548173ffffffffffffffffffffffffffffffffffffffff021916908373ffffffffffffffffffffffffffffffffffffffff1602179055508173ffffffffffffffffffffffffffffffffffffffff168173ffffffffffffffffffffffffffffffffffffffff167f8be0079c531659141344cd1fd0a4f28419497f9722a3daafe3b4186f6b6457e060405160405180910390a35050565b600033905090565b604051806040016040528060008152602001600081525090565b600081359050610bc581611251565b92915050565b600081519050610bda81611268565b92915050565b600081519050610bef8161127f565b92915050565b600081359050610c0481611296565b92915050565b600081519050610c1981611296565b92915050565b600060208284031215610c3157600080fd5b6000610c3f84828501610bb6565b91505092915050565b600060208284031215610c5a57600080fd5b6000610c6884828501610bcb565b91505092915050565b600060208284031215610c8357600080fd5b6000610c9184828501610be0565b91505092915050565b600060208284031215610cac57600080fd5b6000610cba84828501610bf5565b91505092915050565b600060208284031215610cd557600080fd5b6000610ce384828501610c0a565b91505092915050565b610cf58161108a565b82525050565b610d04816110dc565b82525050565b6000610d17601783610f64565b9150610d228261115e565b602082019050919050565b6000610d3a602683610f64565b9150610d4582611187565b604082019050919050565b6000610d5d601c83610f64565b9150610d68826111d6565b602082019050919050565b6000610d80601483610f64565b9150610d8b826111ff565b602082019050919050565b6000610da3602083610f64565b9150610dae82611228565b602082019050919050565b604082016000820151610dcf6000850182610de8565b506020820151610de26020850182610de8565b50505050565b610df1816110d2565b82525050565b610e00816110d2565b82525050565b6000602082019050610e1b6000830184610cec565b92915050565b6000604082019050610e366000830185610cec565b610e436020830184610df7565b9392505050565b6000602082019050610e5f6000830184610cfb565b92915050565b60006020820190508181036000830152610e7e81610d0a565b9050919050565b60006020820190508181036000830152610e9e81610d2d565b9050919050565b60006020820190508181036000830152610ebe81610d50565b9050919050565b60006020820190508181036000830152610ede81610d73565b9050919050565b60006020820190508181036000830152610efe81610d96565b9050919050565b6000604082019050610f1a6000830184610db9565b92915050565b6000602082019050610f356000830184610df7565b92915050565b6000604082019050610f506000830185610df7565b610f5d6020830184610df7565b9392505050565b600082825260208201905092915050565b6000610f80826110d2565b9150610f8b836110d2565b9250827fffffffffffffffffffffffffffffffffffffffffffffffffffffffffffffffff03821115610fc057610fbf611100565b5b828201905092915050565b6000610fd6826110d2565b9150610fe1836110d2565b925082610ff157610ff061112f565b5b828204905092915050565b6000611007826110d2565b9150611012836110d2565b9250817fffffffffffffffffffffffffffffffffffffffffffffffffffffffffffffffff048311821515161561104b5761104a611100565b5b828202905092915050565b6000611061826110d2565b915061106c836110d2565b92508282101561107f5761107e611100565b5b828203905092915050565b6000611095826110b2565b9050919050565b60008115159050919050565b6000819050919050565b600073ffffffffffffffffffffffffffffffffffffffff82169050919050565b6000819050919050565b60006110e7826110ee565b9050919050565b60006110f9826110b2565b9050919050565b7f4e487b7100000000000000000000000000000000000000000000000000000000600052601160045260246000fd5b7f4e487b7100000000000000000000000000000000000000000000000000000000600052601260045260246000fd5b7f7769746864726177206c696d6974206578636565646564000000000000000000600082015250565b7f4f776e61626c653a206e6577206f776e657220697320746865207a65726f206160008201527f6464726573730000000000000000000000000000000000000000000000000000602082015250565b7f6e6f7420656e6f75676820746f6b656e7320696e2062616c616e636500000000600082015250565b7f696e636f72726563742045544820616d6f756e74000000000000000000000000600082015250565b7f4f776e61626c653a2063616c6c6572206973206e6f7420746865206f776e6572600082015250565b61125a8161108a565b811461126557600080fd5b50565b6112718161109c565b811461127c57600080fd5b50565b611288816110a8565b811461129357600080fd5b50565b61129f816110d2565b81146112aa57600080fd5b5056fea264697066735822122091a3a70ca3e9060963a55b6afd7a04f08ac3bf2c48eabeeda97e59e4f801172a64736f6c63430008040033",
  "linkReferences": {},
  "deployedLinkReferences": {}
}